{
  "contractName": "Voting",
  "abi": [
    {
      "anonymous": false,
      "inputs": [
        {
          "indexed": true,
          "internalType": "address",
          "name": "previousOwner",
          "type": "address"
        },
        {
          "indexed": true,
          "internalType": "address",
          "name": "newOwner",
          "type": "address"
        }
      ],
      "name": "OwnershipTransferred",
      "type": "event"
    },
    {
      "anonymous": false,
      "inputs": [
        {
          "indexed": false,
          "internalType": "uint256",
          "name": "proposalId",
          "type": "uint256"
        }
      ],
      "name": "ProposalRegistered",
      "type": "event"
    },
    {
      "anonymous": false,
      "inputs": [
        {
          "indexed": false,
          "internalType": "address",
          "name": "voter",
          "type": "address"
        },
        {
          "indexed": false,
          "internalType": "uint256",
          "name": "proposalId",
          "type": "uint256"
        }
      ],
      "name": "Voted",
      "type": "event"
    },
    {
      "anonymous": false,
      "inputs": [
        {
          "indexed": false,
          "internalType": "address",
          "name": "voterAddress",
          "type": "address"
        }
      ],
      "name": "VoterRegistered",
      "type": "event"
    },
    {
      "anonymous": false,
      "inputs": [
        {
          "indexed": false,
          "internalType": "enum Voting.WorkflowStatus",
          "name": "previousStatus",
          "type": "uint8"
        },
        {
          "indexed": false,
          "internalType": "enum Voting.WorkflowStatus",
          "name": "newStatus",
          "type": "uint8"
        }
      ],
      "name": "WorkflowStatusChange",
      "type": "event"
    },
    {
      "inputs": [],
      "name": "owner",
      "outputs": [
        {
          "internalType": "address",
          "name": "",
          "type": "address"
        }
      ],
      "stateMutability": "view",
      "type": "function",
      "constant": true
    },
    {
      "inputs": [],
      "name": "renounceOwnership",
      "outputs": [],
      "stateMutability": "nonpayable",
      "type": "function"
    },
    {
      "inputs": [
        {
          "internalType": "address",
          "name": "newOwner",
          "type": "address"
        }
      ],
      "name": "transferOwnership",
      "outputs": [],
      "stateMutability": "nonpayable",
      "type": "function"
    },
    {
      "inputs": [
        {
          "internalType": "address",
          "name": "",
          "type": "address"
        }
      ],
      "name": "voters",
      "outputs": [
        {
          "internalType": "bool",
          "name": "isRegistered",
          "type": "bool"
        },
        {
          "internalType": "bool",
          "name": "hasVoted",
          "type": "bool"
        },
        {
          "internalType": "uint256",
          "name": "votedProposalId",
          "type": "uint256"
        }
      ],
      "stateMutability": "view",
      "type": "function",
      "constant": true
    },
    {
      "inputs": [],
      "name": "winningProposalID",
      "outputs": [
        {
          "internalType": "uint256",
          "name": "",
          "type": "uint256"
        }
      ],
      "stateMutability": "view",
      "type": "function",
      "constant": true
    },
    {
      "inputs": [],
      "name": "workflowStatus",
      "outputs": [
        {
          "internalType": "enum Voting.WorkflowStatus",
          "name": "",
          "type": "uint8"
        }
      ],
      "stateMutability": "view",
      "type": "function",
      "constant": true
    },
    {
      "inputs": [],
      "name": "isOwner",
      "outputs": [
        {
          "internalType": "bool",
          "name": "",
          "type": "bool"
        }
      ],
      "stateMutability": "view",
      "type": "function",
      "constant": true
    },
    {
      "inputs": [
        {
          "internalType": "address",
          "name": "_addr",
          "type": "address"
        }
      ],
      "name": "getVoter",
      "outputs": [
        {
          "components": [
            {
              "internalType": "bool",
              "name": "isRegistered",
              "type": "bool"
            },
            {
              "internalType": "bool",
              "name": "hasVoted",
              "type": "bool"
            },
            {
              "internalType": "uint256",
              "name": "votedProposalId",
              "type": "uint256"
            }
          ],
          "internalType": "struct Voting.Voter",
          "name": "",
          "type": "tuple"
        }
      ],
      "stateMutability": "view",
      "type": "function",
      "constant": true
    },
    {
      "inputs": [
        {
          "internalType": "uint256",
          "name": "_id",
          "type": "uint256"
        }
      ],
      "name": "getOneProposal",
      "outputs": [
        {
          "internalType": "string",
          "name": "",
          "type": "string"
        }
      ],
      "stateMutability": "view",
      "type": "function",
      "constant": true
    },
    {
      "inputs": [],
      "name": "getProposals",
      "outputs": [
        {
          "components": [
            {
              "internalType": "string",
              "name": "description",
              "type": "string"
            },
            {
              "internalType": "uint256",
              "name": "voteCount",
              "type": "uint256"
            }
          ],
          "internalType": "struct Voting.Proposal[]",
          "name": "",
          "type": "tuple[]"
        }
      ],
      "stateMutability": "view",
      "type": "function",
      "constant": true
    },
    {
      "inputs": [
        {
          "internalType": "address",
          "name": "_addr",
          "type": "address"
        }
      ],
      "name": "addVoter",
      "outputs": [],
      "stateMutability": "nonpayable",
      "type": "function"
    },
    {
      "inputs": [
        {
          "internalType": "string",
          "name": "_desc",
          "type": "string"
        }
      ],
      "name": "addProposal",
      "outputs": [],
      "stateMutability": "nonpayable",
      "type": "function"
    },
    {
      "inputs": [
        {
          "internalType": "uint256",
          "name": "_id",
          "type": "uint256"
        }
      ],
      "name": "setVote",
      "outputs": [],
      "stateMutability": "nonpayable",
      "type": "function"
    },
    {
      "inputs": [],
      "name": "getCurrentStatus",
      "outputs": [
        {
          "internalType": "string",
          "name": "",
          "type": "string"
        }
      ],
      "stateMutability": "view",
      "type": "function",
      "constant": true
    },
    {
      "inputs": [],
      "name": "RegisteringVoters",
      "outputs": [],
      "stateMutability": "nonpayable",
      "type": "function"
    },
    {
      "inputs": [],
      "name": "startProposalsRegistering",
      "outputs": [],
      "stateMutability": "nonpayable",
      "type": "function"
    },
    {
      "inputs": [],
      "name": "endProposalsRegistering",
      "outputs": [],
      "stateMutability": "nonpayable",
      "type": "function"
    },
    {
      "inputs": [],
      "name": "startVotingSession",
      "outputs": [],
      "stateMutability": "nonpayable",
      "type": "function"
    },
    {
      "inputs": [],
      "name": "endVotingSession",
      "outputs": [],
      "stateMutability": "nonpayable",
      "type": "function"
    },
    {
      "inputs": [],
      "name": "tallyVotes",
      "outputs": [],
      "stateMutability": "nonpayable",
      "type": "function"
    },
    {
      "inputs": [],
      "name": "restartSession",
      "outputs": [],
      "stateMutability": "nonpayable",
      "type": "function"
    }
  ],
  "bytecode": "0x60806040526000600260006101000a81548160ff021916908360058111156200002d576200002c62000132565b5b02179055503480156200003f57600080fd5b5062000060620000546200006660201b60201c565b6200006e60201b60201c565b62000161565b600033905090565b60008060009054906101000a900473ffffffffffffffffffffffffffffffffffffffff169050816000806101000a81548173ffffffffffffffffffffffffffffffffffffffff021916908373ffffffffffffffffffffffffffffffffffffffff1602179055508173ffffffffffffffffffffffffffffffffffffffff168173ffffffffffffffffffffffffffffffffffffffff167f8be0079c531659141344cd1fd0a4f28419497f9722a3daafe3b4186f6b6457e060405160405180910390a35050565b7f4e487b7100000000000000000000000000000000000000000000000000000000600052602160045260246000fd5b612c9180620001716000396000f3fe608060405234801561001057600080fd5b50600436106101375760003560e01c8063a2788cce116100b8578063c7038a4e1161007c578063c7038a4e146102bc578063c88af42f146102c6578063d4f50f98146102d0578063ee74c67814610300578063f2fde38b1461030a578063f4ab9adf1461032657610137565b8063a2788cce14610214578063a3dd261914610244578063a3ec138d14610262578063a7bfab1614610294578063bdc014311461029e57610137565b8063715018a6116100ff578063715018a6146101a6578063795769e5146101b05780638da5cb5b146101ba5780638f32d59b146101d8578063a1edffa2146101f657610137565b80631285edf71461013c578063230796ae146101465780632fdae3c514610162578063378a21781461017e57806362564c4814610188575b600080fd5b610144610342565b005b610160600480360381019061015b9190611c49565b610427565b005b61017c60048036038101906101779190611dbc565b610722565b005b610186610965565b005b610190610ad2565b60405161019d9190611f9b565b60405180910390f35b6101ae610bcd565b005b6101b8610be1565b005b6101c2610d91565b6040516101cf9190611ffe565b60405180910390f35b6101e0610dba565b6040516101ed9190612034565b60405180910390f35b6101fe610df7565b60405161020b91906120c6565b60405180910390f35b61022e60048036038101906102299190611c49565b610e0a565b60405161023b919061212b565b60405180910390f35b61024c610ec1565b604051610259919061212b565b60405180910390f35b61027c60048036038101906102779190612179565b6111a8565b60405161028b939291906121b5565b60405180910390f35b61029c6111ec565b005b6102a66112d2565b6040516102b391906121ec565b60405180910390f35b6102c46112d8565b005b6102ce6113be565b005b6102ea60048036038101906102e59190612179565b6114a3565b6040516102f79190612258565b60405180910390f35b6103086115cb565b005b610324600480360381019061031f9190612179565b6116b1565b005b610340600480360381019061033b9190612179565b611734565b005b61034a611940565b60058081111561035d5761035c61204f565b5b600260009054906101000a900460ff16600581111561037f5761037e61204f565b5b146103bf576040517f08c379a00000000000000000000000000000000000000000000000000000000081526004016103b6906122e5565b60405180910390fd5b6000600260006101000a81548160ff021916908360058111156103e5576103e461204f565b5b02179055507f0a97a4ee45751e2abf3e4fc8946939630b11b371ea8ae39ccdc3056e98f5cc3f6005600060405161041d929190612305565b60405180910390a1565b600460003373ffffffffffffffffffffffffffffffffffffffff1673ffffffffffffffffffffffffffffffffffffffff16815260200190815260200160002060000160009054906101000a900460ff166104b6576040517f08c379a00000000000000000000000000000000000000000000000000000000081526004016104ad9061237a565b60405180910390fd5b600360058111156104ca576104c961204f565b5b600260009054906101000a900460ff1660058111156104ec576104eb61204f565b5b1461052c576040517f08c379a00000000000000000000000000000000000000000000000000000000081526004016105239061240c565b60405180910390fd5b60011515600460003373ffffffffffffffffffffffffffffffffffffffff1673ffffffffffffffffffffffffffffffffffffffff16815260200190815260200160002060000160019054906101000a900460ff161515036105c2576040517f08c379a00000000000000000000000000000000000000000000000000000000081526004016105b990612478565b60405180910390fd5b6003805490508110610609576040517f08c379a0000000000000000000000000000000000000000000000000000000008152600401610600906124e4565b60405180910390fd5b80600460003373ffffffffffffffffffffffffffffffffffffffff1673ffffffffffffffffffffffffffffffffffffffff168152602001908152602001600020600101819055506001600460003373ffffffffffffffffffffffffffffffffffffffff1673ffffffffffffffffffffffffffffffffffffffff16815260200190815260200160002060000160016101000a81548160ff021916908315150217905550600381815481106106bf576106be612504565b5b906000526020600020906002020160010160008154809291906106e190612562565b91905055507f4d99b957a2bc29a30ebd96a7be8e68fe50a3c701db28a91436490b7d53870ca433826040516107179291906125aa565b60405180910390a150565b600460003373ffffffffffffffffffffffffffffffffffffffff1673ffffffffffffffffffffffffffffffffffffffff16815260200190815260200160002060000160009054906101000a900460ff166107b1576040517f08c379a00000000000000000000000000000000000000000000000000000000081526004016107a89061237a565b60405180910390fd5b600160058111156107c5576107c461204f565b5b600260009054906101000a900460ff1660058111156107e7576107e661204f565b5b14610827576040517f08c379a000000000000000000000000000000000000000000000000000000000815260040161081e9061261f565b60405180910390fd5b60405160200161083690612665565b604051602081830303815290604052805190602001208160405160200161085d919061212b565b60405160208183030381529060405280519060200120036108b3576040517f08c379a00000000000000000000000000000000000000000000000000000000081526004016108aa906126f7565b60405180910390fd5b6108bb611a8a565b8181600001819052506003819080600181540180825580915050600190039060005260206000209060020201600090919091909150600082015181600001908051906020019061090c929190611aa4565b506020820151816001015550507f92e393e9b54e2f801d3ea4beb0c5e71a21cc34a5d34b77d0fb8a3aa1650dc18f600160038054905061094c9190612717565b60405161095991906121ec565b60405180910390a15050565b61096d611940565b600460058111156109815761098061204f565b5b600260009054906101000a900460ff1660058111156109a3576109a261204f565b5b146109e3576040517f08c379a00000000000000000000000000000000000000000000000000000000081526004016109da906127bd565b60405180910390fd5b600080600090505b600380549050811015610a615760038281548110610a0c57610a0b612504565b5b90600052602060002090600202016001015460038281548110610a3257610a31612504565b5b9060005260206000209060020201600101541115610a4e578091505b8080610a5990612562565b9150506109eb565b50806001819055506005600260006101000a81548160ff02191690836005811115610a8f57610a8e61204f565b5b02179055507f0a97a4ee45751e2abf3e4fc8946939630b11b371ea8ae39ccdc3056e98f5cc3f60046005604051610ac7929190612305565b60405180910390a150565b60606003805480602002602001604051908101604052809291908181526020016000905b82821015610bc45783829060005260206000209060020201604051806040016040529081600082018054610b299061280c565b80601f0160208091040260200160405190810160405280929190818152602001828054610b559061280c565b8015610ba25780601f10610b7757610100808354040283529160200191610ba2565b820191906000526020600020905b815481529060010190602001808311610b8557829003601f168201915b5050505050815260200160018201548152505081526020019060010190610af6565b50505050905090565b610bd5611940565b610bdf60006119be565b565b610be9611940565b600580811115610bfc57610bfb61204f565b5b600260009054906101000a900460ff166005811115610c1e57610c1d61204f565b5b14610c5e576040517f08c379a0000000000000000000000000000000000000000000000000000000008152600401610c5590612889565b60405180910390fd5b60036000610c6c9190611b2a565b60005b600580549050811015610d285760006004600060058481548110610c9657610c95612504565b5b9060005260206000200160009054906101000a900473ffffffffffffffffffffffffffffffffffffffff1673ffffffffffffffffffffffffffffffffffffffff1673ffffffffffffffffffffffffffffffffffffffff16815260200190815260200160002060000160016101000a81548160ff0219169083151502179055508080610d2090612562565b915050610c6f565b506000600260006101000a81548160ff02191690836005811115610d4f57610d4e61204f565b5b02179055507f0a97a4ee45751e2abf3e4fc8946939630b11b371ea8ae39ccdc3056e98f5cc3f60056000604051610d87929190612305565b60405180910390a1565b60008060009054906101000a900473ffffffffffffffffffffffffffffffffffffffff16905090565b6000610dc4610d91565b73ffffffffffffffffffffffffffffffffffffffff163373ffffffffffffffffffffffffffffffffffffffff1614905090565b600260009054906101000a900460ff1681565b606060038281548110610e2057610e1f612504565b5b90600052602060002090600202016000018054610e3c9061280c565b80601f0160208091040260200160405190810160405280929190818152602001828054610e689061280c565b8015610eb55780601f10610e8a57610100808354040283529160200191610eb5565b820191906000526020600020905b815481529060010190602001808311610e9857829003601f168201915b50505050509050919050565b606060006005811115610ed757610ed661204f565b5b600260009054906101000a900460ff166005811115610ef957610ef861204f565b5b03610f3b576040518060400160405280601181526020017f5265676973746572696e67566f7465727300000000000000000000000000000081525090506111a5565b60016005811115610f4f57610f4e61204f565b5b600260009054906101000a900460ff166005811115610f7157610f7061204f565b5b03610fb3576040518060400160405280601c81526020017f50726f706f73616c73526567697374726174696f6e537461727465640000000081525090506111a5565b60026005811115610fc757610fc661204f565b5b600260009054906101000a900460ff166005811115610fe957610fe861204f565b5b0361102b576040518060400160405280601a81526020017f50726f706f73616c73526567697374726174696f6e456e64656400000000000081525090506111a5565b6003600581111561103f5761103e61204f565b5b600260009054906101000a900460ff1660058111156110615761106061204f565b5b036110a3576040518060400160405280601481526020017f566f74696e6753657373696f6e5374617274656400000000000000000000000081525090506111a5565b600460058111156110b7576110b661204f565b5b600260009054906101000a900460ff1660058111156110d9576110d861204f565b5b0361111b576040518060400160405280601281526020017f566f74696e6753657373696f6e456e646564000000000000000000000000000081525090506111a5565b60058081111561112e5761112d61204f565b5b600260009054906101000a900460ff1660058111156111505761114f61204f565b5b03611192576040518060400160405280600c81526020017f566f74657354616c6c696564000000000000000000000000000000000000000081525090506111a5565b6040518060200160405280600081525090505b90565b60046020528060005260406000206000915090508060000160009054906101000a900460ff16908060000160019054906101000a900460ff16908060010154905083565b6111f4611940565b600360058111156112085761120761204f565b5b600260009054906101000a900460ff16600581111561122a5761122961204f565b5b1461126a576040517f08c379a00000000000000000000000000000000000000000000000000000000081526004016112619061240c565b60405180910390fd5b6004600260006101000a81548160ff021916908360058111156112905761128f61204f565b5b02179055507f0a97a4ee45751e2abf3e4fc8946939630b11b371ea8ae39ccdc3056e98f5cc3f600360046040516112c8929190612305565b60405180910390a1565b60015481565b6112e0611940565b600060058111156112f4576112f361204f565b5b600260009054906101000a900460ff1660058111156113165761131561204f565b5b14611356576040517f08c379a000000000000000000000000000000000000000000000000000000000815260040161134d9061291b565b60405180910390fd5b6001600260006101000a81548160ff0219169083600581111561137c5761137b61204f565b5b02179055507f0a97a4ee45751e2abf3e4fc8946939630b11b371ea8ae39ccdc3056e98f5cc3f600060016040516113b4929190612305565b60405180910390a1565b6113c6611940565b600160058111156113da576113d961204f565b5b600260009054906101000a900460ff1660058111156113fc576113fb61204f565b5b1461143c576040517f08c379a0000000000000000000000000000000000000000000000000000000008152600401611433906129ad565b60405180910390fd5b60028060006101000a81548160ff021916908360058111156114615761146061204f565b5b02179055507f0a97a4ee45751e2abf3e4fc8946939630b11b371ea8ae39ccdc3056e98f5cc3f60016002604051611499929190612305565b60405180910390a1565b6114ab611b4e565b600460003373ffffffffffffffffffffffffffffffffffffffff1673ffffffffffffffffffffffffffffffffffffffff16815260200190815260200160002060000160009054906101000a900460ff1661153a576040517f08c379a00000000000000000000000000000000000000000000000000000000081526004016115319061237a565b60405180910390fd5b600460008373ffffffffffffffffffffffffffffffffffffffff1673ffffffffffffffffffffffffffffffffffffffff1681526020019081526020016000206040518060600160405290816000820160009054906101000a900460ff161515151581526020016000820160019054906101000a900460ff161515151581526020016001820154815250509050919050565b6115d3611940565b600260058111156115e7576115e661204f565b5b600260009054906101000a900460ff1660058111156116095761160861204f565b5b14611649576040517f08c379a000000000000000000000000000000000000000000000000000000000815260040161164090612a3f565b60405180910390fd5b6003600260006101000a81548160ff0219169083600581111561166f5761166e61204f565b5b02179055507f0a97a4ee45751e2abf3e4fc8946939630b11b371ea8ae39ccdc3056e98f5cc3f600260036040516116a7929190612305565b60405180910390a1565b6116b9611940565b600073ffffffffffffffffffffffffffffffffffffffff168173ffffffffffffffffffffffffffffffffffffffff1603611728576040517f08c379a000000000000000000000000000000000000000000000000000000000815260040161171f90612ad1565b60405180910390fd5b611731816119be565b50565b61173c611940565b600060058111156117505761174f61204f565b5b600260009054906101000a900460ff1660058111156117725761177161204f565b5b146117b2576040517f08c379a00000000000000000000000000000000000000000000000000000000081526004016117a990612b63565b60405180910390fd5b60011515600460008373ffffffffffffffffffffffffffffffffffffffff1673ffffffffffffffffffffffffffffffffffffffff16815260200190815260200160002060000160009054906101000a900460ff16151503611848576040517f08c379a000000000000000000000000000000000000000000000000000000000815260040161183f90612bcf565b60405180910390fd5b6001600460008373ffffffffffffffffffffffffffffffffffffffff1673ffffffffffffffffffffffffffffffffffffffff16815260200190815260200160002060000160006101000a81548160ff0219169083151502179055506005819080600181540180825580915050600190039060005260206000200160009091909190916101000a81548173ffffffffffffffffffffffffffffffffffffffff021916908373ffffffffffffffffffffffffffffffffffffffff1602179055507fb6be2187d059cc2a55fe29e0e503b566e1e0f8c8780096e185429350acffd3dd816040516119359190611ffe565b60405180910390a150565b611948611a82565b73ffffffffffffffffffffffffffffffffffffffff16611966610d91565b73ffffffffffffffffffffffffffffffffffffffff16146119bc576040517f08c379a00000000000000000000000000000000000000000000000000000000081526004016119b390612c3b565b60405180910390fd5b565b60008060009054906101000a900473ffffffffffffffffffffffffffffffffffffffff169050816000806101000a81548173ffffffffffffffffffffffffffffffffffffffff021916908373ffffffffffffffffffffffffffffffffffffffff1602179055508173ffffffffffffffffffffffffffffffffffffffff168173ffffffffffffffffffffffffffffffffffffffff167f8be0079c531659141344cd1fd0a4f28419497f9722a3daafe3b4186f6b6457e060405160405180910390a35050565b600033905090565b604051806040016040528060608152602001600081525090565b828054611ab09061280c565b90600052602060002090601f016020900481019282611ad25760008555611b19565b82601f10611aeb57805160ff1916838001178555611b19565b82800160010185558215611b19579182015b82811115611b18578251825591602001919060010190611afd565b5b509050611b269190611b73565b5090565b5080546000825560020290600052602060002090810190611b4b9190611b90565b50565b6040518060600160405280600015158152602001600015158152602001600081525090565b5b80821115611b8c576000816000905550600101611b74565b5090565b5b80821115611bbb5760008082016000611baa9190611bbf565b600182016000905550600201611b91565b5090565b508054611bcb9061280c565b6000825580601f10611bdd5750611bfc565b601f016020900490600052602060002090810190611bfb9190611b73565b5b50565b6000604051905090565b600080fd5b600080fd5b6000819050919050565b611c2681611c13565b8114611c3157600080fd5b50565b600081359050611c4381611c1d565b92915050565b600060208284031215611c5f57611c5e611c09565b5b6000611c6d84828501611c34565b91505092915050565b600080fd5b600080fd5b6000601f19601f8301169050919050565b7f4e487b7100000000000000000000000000000000000000000000000000000000600052604160045260246000fd5b611cc982611c80565b810181811067ffffffffffffffff82111715611ce857611ce7611c91565b5b80604052505050565b6000611cfb611bff565b9050611d078282611cc0565b919050565b600067ffffffffffffffff821115611d2757611d26611c91565b5b611d3082611c80565b9050602081019050919050565b82818337600083830152505050565b6000611d5f611d5a84611d0c565b611cf1565b905082815260208101848484011115611d7b57611d7a611c7b565b5b611d86848285611d3d565b509392505050565b600082601f830112611da357611da2611c76565b5b8135611db3848260208601611d4c565b91505092915050565b600060208284031215611dd257611dd1611c09565b5b600082013567ffffffffffffffff811115611df057611def611c0e565b5b611dfc84828501611d8e565b91505092915050565b600081519050919050565b600082825260208201905092915050565b6000819050602082019050919050565b600081519050919050565b600082825260208201905092915050565b60005b83811015611e6b578082015181840152602081019050611e50565b83811115611e7a576000848401525b50505050565b6000611e8b82611e31565b611e958185611e3c565b9350611ea5818560208601611e4d565b611eae81611c80565b840191505092915050565b611ec281611c13565b82525050565b60006040830160008301518482036000860152611ee58282611e80565b9150506020830151611efa6020860182611eb9565b508091505092915050565b6000611f118383611ec8565b905092915050565b6000602082019050919050565b6000611f3182611e05565b611f3b8185611e10565b935083602082028501611f4d85611e21565b8060005b85811015611f895784840389528151611f6a8582611f05565b9450611f7583611f19565b925060208a01995050600181019050611f51565b50829750879550505050505092915050565b60006020820190508181036000830152611fb58184611f26565b905092915050565b600073ffffffffffffffffffffffffffffffffffffffff82169050919050565b6000611fe882611fbd565b9050919050565b611ff881611fdd565b82525050565b60006020820190506120136000830184611fef565b92915050565b60008115159050919050565b61202e81612019565b82525050565b60006020820190506120496000830184612025565b92915050565b7f4e487b7100000000000000000000000000000000000000000000000000000000600052602160045260246000fd5b6006811061208f5761208e61204f565b5b50565b60008190506120a08261207e565b919050565b60006120b082612092565b9050919050565b6120c0816120a5565b82525050565b60006020820190506120db60008301846120b7565b92915050565b600082825260208201905092915050565b60006120fd82611e31565b61210781856120e1565b9350612117818560208601611e4d565b61212081611c80565b840191505092915050565b6000602082019050818103600083015261214581846120f2565b905092915050565b61215681611fdd565b811461216157600080fd5b50565b6000813590506121738161214d565b92915050565b60006020828403121561218f5761218e611c09565b5b600061219d84828501612164565b91505092915050565b6121af81611c13565b82525050565b60006060820190506121ca6000830186612025565b6121d76020830185612025565b6121e460408301846121a6565b949350505050565b600060208201905061220160008301846121a6565b92915050565b61221081612019565b82525050565b60608201600082015161222c6000850182612207565b50602082015161223f6020850182612207565b5060408201516122526040850182611eb9565b50505050565b600060608201905061226d6000830184612216565b92915050565b7f5265676973746572696e6720766f746572732063616e7420626520737461727460008201527f6564206e6f770000000000000000000000000000000000000000000000000000602082015250565b60006122cf6026836120e1565b91506122da82612273565b604082019050919050565b600060208201905081810360008301526122fe816122c2565b9050919050565b600060408201905061231a60008301856120b7565b61232760208301846120b7565b9392505050565b7f596f75277265206e6f74206120766f7465720000000000000000000000000000600082015250565b60006123646012836120e1565b915061236f8261232e565b602082019050919050565b6000602082019050818103600083015261239381612357565b9050919050565b7f566f74696e672073657373696f6e20686176656e74207374617274656420796560008201527f7400000000000000000000000000000000000000000000000000000000000000602082015250565b60006123f66021836120e1565b91506124018261239a565b604082019050919050565b60006020820190508181036000830152612425816123e9565b9050919050565b7f596f75206861766520616c726561647920766f74656400000000000000000000600082015250565b60006124626016836120e1565b915061246d8261242c565b602082019050919050565b6000602082019050818103600083015261249181612455565b9050919050565b7f50726f706f73616c206e6f7420666f756e640000000000000000000000000000600082015250565b60006124ce6012836120e1565b91506124d982612498565b602082019050919050565b600060208201905081810360008301526124fd816124c1565b9050919050565b7f4e487b7100000000000000000000000000000000000000000000000000000000600052603260045260246000fd5b7f4e487b7100000000000000000000000000000000000000000000000000000000600052601160045260246000fd5b600061256d82611c13565b91507fffffffffffffffffffffffffffffffffffffffffffffffffffffffffffffffff820361259f5761259e612533565b5b600182019050919050565b60006040820190506125bf6000830185611fef565b6125cc60208301846121a6565b9392505050565b7f50726f706f73616c7320617265206e6f7420616c6c6f77656420796574000000600082015250565b6000612609601d836120e1565b9150612614826125d3565b602082019050919050565b60006020820190508181036000830152612638816125fc565b9050919050565b50565b600061264f6000836120e1565b915061265a8261263f565b600082019050919050565b6000602082019050818103600083015261267e81612642565b9050919050565b7f566f7573206e6520706f7576657a20706173206e65207269656e2070726f706f60008201527f7365720000000000000000000000000000000000000000000000000000000000602082015250565b60006126e16023836120e1565b91506126ec82612685565b604082019050919050565b60006020820190508181036000830152612710816126d4565b9050919050565b600061272282611c13565b915061272d83611c13565b9250828210156127405761273f612533565b5b828203905092915050565b7f43757272656e7420737461747573206973206e6f7420766f74696e672073657360008201527f73696f6e20656e64656400000000000000000000000000000000000000000000602082015250565b60006127a7602a836120e1565b91506127b28261274b565b604082019050919050565b600060208201905081810360008301526127d68161279a565b9050919050565b7f4e487b7100000000000000000000000000000000000000000000000000000000600052602260045260246000fd5b6000600282049050600182168061282457607f821691505b602082108103612837576128366127dd565b5b50919050565b7f436f756e74696e6720766f746573206e6f742066696e69736865642079657400600082015250565b6000612873601f836120e1565b915061287e8261283d565b602082019050919050565b600060208201905081810360008301526128a281612866565b9050919050565b7f5265676973746572696e672070726f706f73616c732063616e7420626520737460008201527f6172746564206e6f770000000000000000000000000000000000000000000000602082015250565b60006129056029836120e1565b9150612910826128a9565b604082019050919050565b60006020820190508181036000830152612934816128f8565b9050919050565b7f5265676973746572696e672070726f706f73616c7320686176656e742073746160008201527f7274656420796574000000000000000000000000000000000000000000000000602082015250565b60006129976028836120e1565b91506129a28261293b565b604082019050919050565b600060208201905081810360008301526129c68161298a565b9050919050565b7f5265676973746572696e672070726f706f73616c73207068617365206973206e60008201527f6f742066696e6973686564000000000000000000000000000000000000000000602082015250565b6000612a29602b836120e1565b9150612a34826129cd565b604082019050919050565b60006020820190508181036000830152612a5881612a1c565b9050919050565b7f4f776e61626c653a206e6577206f776e657220697320746865207a65726f206160008201527f6464726573730000000000000000000000000000000000000000000000000000602082015250565b6000612abb6026836120e1565b9150612ac682612a5f565b604082019050919050565b60006020820190508181036000830152612aea81612aae565b9050919050565b7f566f7465727320726567697374726174696f6e206973206e6f74206f70656e2060008201527f7965740000000000000000000000000000000000000000000000000000000000602082015250565b6000612b4d6023836120e1565b9150612b5882612af1565b604082019050919050565b60006020820190508181036000830152612b7c81612b40565b9050919050565b7f416c726561647920726567697374657265640000000000000000000000000000600082015250565b6000612bb96012836120e1565b9150612bc482612b83565b602082019050919050565b60006020820190508181036000830152612be881612bac565b9050919050565b7f4f776e61626c653a2063616c6c6572206973206e6f7420746865206f776e6572600082015250565b6000612c256020836120e1565b9150612c3082612bef565b602082019050919050565b60006020820190508181036000830152612c5481612c18565b905091905056fea26469706673582212205d28adf1050690d344701b231bbacb508e845bf2e35745061da590b10351860564736f6c634300080e0033",
  "immutableReferences": {},
  "source": "// SPDX-License-Identifier: MIT\r\n\r\npragma solidity 0.8.14;\r\nimport \"../node_modules/@openzeppelin/contracts/access/Ownable.sol\";\r\nimport \"@openzeppelin/contracts/utils/Strings.sol\";\r\n\r\n\r\ncontract Voting is Ownable {\r\n\r\n    uint public winningProposalID;\r\n    \r\n    struct Voter {\r\n        bool isRegistered;\r\n        bool hasVoted;\r\n        uint votedProposalId;\r\n    }\r\n\r\n    struct Proposal {\r\n        string description;\r\n        uint voteCount;\r\n    }\r\n\r\n    enum  WorkflowStatus {\r\n        RegisteringVoters,\r\n        ProposalsRegistrationStarted,\r\n        ProposalsRegistrationEnded,\r\n        VotingSessionStarted,\r\n        VotingSessionEnded,\r\n        VotesTallied\r\n    }\r\n\r\n    WorkflowStatus public workflowStatus = WorkflowStatus.RegisteringVoters;\r\n    Proposal[] proposalsArray;\r\n    mapping (address => Voter) public voters;\r\n    address[] private addresses;\r\n\r\n\r\n    event VoterRegistered(address voterAddress); \r\n    event WorkflowStatusChange(WorkflowStatus previousStatus, WorkflowStatus newStatus);\r\n    event ProposalRegistered(uint proposalId);\r\n    event Voted (address voter, uint proposalId);\r\n    \r\n    modifier onlyVoters() {\r\n        require(voters[msg.sender].isRegistered, \"You're not a voter\");\r\n        _;\r\n    }\r\n\r\n    // ::::::::::::: Is Owner ::::::::::::: //\r\n\r\n    function isOwner() public view virtual returns (bool) {\r\n        return msg.sender == owner();\r\n    }\r\n    \r\n    // on peut faire un modifier pour les tats\r\n\r\n    // ::::::::::::: GETTERS ::::::::::::: //\r\n\r\n    function getVoter(address _addr) external onlyVoters view returns (Voter memory) {\r\n        return voters[_addr];\r\n    }\r\n    \r\n    function getOneProposal(uint _id) external view returns (string memory) {\r\n        return proposalsArray[_id].description;\r\n    }\r\n\r\n    function getProposals() public view returns (Proposal[] memory) {\r\n        return proposalsArray;\r\n    }\r\n\r\n \r\n    // ::::::::::::: REGISTRATION ::::::::::::: // \r\n\r\n    function addVoter(address _addr) external onlyOwner {\r\n        require(workflowStatus == WorkflowStatus.RegisteringVoters, 'Voters registration is not open yet');\r\n        require(voters[_addr].isRegistered != true, 'Already registered');\r\n    \r\n        voters[_addr].isRegistered = true;\r\n        addresses.push(_addr);\r\n\r\n        emit VoterRegistered(_addr);\r\n    }\r\n \r\n\r\n    // ::::::::::::: PROPOSAL ::::::::::::: // \r\n\r\n    function addProposal(string memory _desc) external onlyVoters {\r\n        require(workflowStatus == WorkflowStatus.ProposalsRegistrationStarted, 'Proposals are not allowed yet');\r\n        require(keccak256(abi.encode(_desc)) != keccak256(abi.encode(\"\")), 'Vous ne pouvez pas ne rien proposer'); // facultatif\r\n        // voir que desc est different des autres\r\n\r\n        Proposal memory proposal;\r\n        proposal.description = _desc;\r\n        proposalsArray.push(proposal);\r\n        emit ProposalRegistered(proposalsArray.length-1);\r\n    }\r\n\r\n    // ::::::::::::: VOTE ::::::::::::: //\r\n\r\n    function setVote( uint _id) external onlyVoters {\r\n        require(workflowStatus == WorkflowStatus.VotingSessionStarted, 'Voting session havent started yet');\r\n        require(voters[msg.sender].hasVoted != true, 'You have already voted');\r\n        require(_id < proposalsArray.length, 'Proposal not found'); // pas oblig, et pas besoin du >0 car uint\r\n\r\n        voters[msg.sender].votedProposalId = _id;\r\n        voters[msg.sender].hasVoted = true;\r\n        proposalsArray[_id].voteCount++;\r\n\r\n        emit Voted(msg.sender, _id);\r\n    }\r\n\r\n    // ::::::::::::: STATE ::::::::::::: //\r\n\r\n\r\n    function getCurrentStatus() external view returns (string memory) {\r\n        if (workflowStatus == WorkflowStatus.RegisteringVoters) return \"RegisteringVoters\";\r\n        if (workflowStatus == WorkflowStatus.ProposalsRegistrationStarted) return \"ProposalsRegistrationStarted\";\r\n        if (workflowStatus == WorkflowStatus.ProposalsRegistrationEnded) return \"ProposalsRegistrationEnded\";\r\n        if (workflowStatus == WorkflowStatus.VotingSessionStarted) return \"VotingSessionStarted\";\r\n        if (workflowStatus == WorkflowStatus.VotingSessionEnded) return \"VotingSessionEnded\";\r\n        if (workflowStatus == WorkflowStatus.VotesTallied) return \"VotesTallied\";\r\n        return \"\";\r\n    }\r\n    \r\n    function RegisteringVoters() external onlyOwner {\r\n        require(workflowStatus == WorkflowStatus.VotesTallied, 'Registering voters cant be started now');\r\n        workflowStatus = WorkflowStatus.RegisteringVoters;\r\n        \r\n        emit WorkflowStatusChange(WorkflowStatus.VotesTallied, WorkflowStatus.RegisteringVoters);\r\n    }\r\n    \r\n    function startProposalsRegistering() external onlyOwner {\r\n        require(workflowStatus == WorkflowStatus.RegisteringVoters, 'Registering proposals cant be started now');\r\n        workflowStatus = WorkflowStatus.ProposalsRegistrationStarted;\r\n        \r\n        emit WorkflowStatusChange(WorkflowStatus.RegisteringVoters, WorkflowStatus.ProposalsRegistrationStarted);\r\n    }\r\n\r\n    function endProposalsRegistering() external onlyOwner {\r\n        require(workflowStatus == WorkflowStatus.ProposalsRegistrationStarted, 'Registering proposals havent started yet');\r\n        workflowStatus = WorkflowStatus.ProposalsRegistrationEnded;\r\n        emit WorkflowStatusChange(WorkflowStatus.ProposalsRegistrationStarted, WorkflowStatus.ProposalsRegistrationEnded);\r\n    }\r\n\r\n    function startVotingSession() external onlyOwner {\r\n        require(workflowStatus == WorkflowStatus.ProposalsRegistrationEnded, 'Registering proposals phase is not finished');\r\n        workflowStatus = WorkflowStatus.VotingSessionStarted;\r\n        emit WorkflowStatusChange(WorkflowStatus.ProposalsRegistrationEnded, WorkflowStatus.VotingSessionStarted);\r\n    }\r\n\r\n    function endVotingSession() external onlyOwner {\r\n        require(workflowStatus == WorkflowStatus.VotingSessionStarted, 'Voting session havent started yet');\r\n        workflowStatus = WorkflowStatus.VotingSessionEnded;\r\n        emit WorkflowStatusChange(WorkflowStatus.VotingSessionStarted, WorkflowStatus.VotingSessionEnded);\r\n    }\r\n\r\n\r\n   function tallyVotes() external onlyOwner {\r\n       require(workflowStatus == WorkflowStatus.VotingSessionEnded, \"Current status is not voting session ended\");\r\n       uint _winningProposalId;\r\n      for (uint256 p = 0; p < proposalsArray.length; p++) {\r\n           if (proposalsArray[p].voteCount > proposalsArray[_winningProposalId].voteCount) {\r\n               _winningProposalId = p;\r\n          }\r\n       }\r\n       winningProposalID = _winningProposalId;\r\n       \r\n       workflowStatus = WorkflowStatus.VotesTallied;\r\n       emit WorkflowStatusChange(WorkflowStatus.VotingSessionEnded, WorkflowStatus.VotesTallied);\r\n    }\r\n\r\n    function restartSession() external onlyOwner{\r\n        require(workflowStatus == WorkflowStatus.VotesTallied, \"Counting votes not finished yet\"); \r\n  \r\n        // Clear datas\r\n        delete(proposalsArray);\r\n        for(uint i; i<addresses.length; i++){\r\n            voters[addresses[i]].hasVoted = false;  \r\n        }\r\n\r\n        workflowStatus = WorkflowStatus.RegisteringVoters;\r\n        \r\n        emit WorkflowStatusChange(WorkflowStatus.VotesTallied, WorkflowStatus.RegisteringVoters);\r\n    }\r\n}",
  "sourcePath": "C:\\Users\\zguai\\Desktop\\CoursAlyra\\DappVoting\\truffle\\contracts\\Voting.sol",
  "compiler": {
    "name": "solc",
    "version": "0.8.14+commit.80d49f37.Emscripten.clang"
  },
  "schemaVersion": "3.4.10",
  "updatedAt": "2022-11-22T12:39:05.025Z",
  "networkType": "ethereum",
  "devdoc": {
    "kind": "dev",
    "methods": {
      "owner()": {
        "details": "Returns the address of the current owner."
      },
      "renounceOwnership()": {
        "details": "Leaves the contract without owner. It will not be possible to call `onlyOwner` functions anymore. Can only be called by the current owner. NOTE: Renouncing ownership will leave the contract without an owner, thereby removing any functionality that is only available to the owner."
      },
      "transferOwnership(address)": {
        "details": "Transfers ownership of the contract to a new account (`newOwner`). Can only be called by the current owner."
      }
    },
    "version": 1
  },
  "userdoc": {
    "kind": "user",
    "methods": {},
    "version": 1
  }
}